:100A180041540D0A00415445300D0A0041542B43FE
:100A2800575341503D22455350383236365F3030A7
:100A380031222C2231323334353637383930222CB2
:100A4800352C330D0A0041542B4349504D55583D20
:100A5800310D0A0041542B434950534552564552D3
:100A68003D312C383838380D0A004F4B00434F4E73
:100A78004E45435400434C4F5345002B49504400C6
:100A88003A0041542B43495053454E443D302C378E
:0B0A98000D0A0053454E44204F4B0058
:0A0D77000333000000032400000015
:100D4B00EF1FAA0670011E4A600BE4FDEDC3947DF4
:050D5B0050EE0D80F7D1
:010D60002270
:070D8A00EFC313FFDFFE229F
:100D2A00E4FC30B4FD7F23120D8AE4FD30B4010DDA
:100D3A0020B4FDEE25E0FEED42060CBC08E4AF0649
:010D4A002286
:100C0B00C2B47F147E00120D4BD2B47F3C120D8AFE
:100C1B0020B44130B4FD20B4FD120D2A8F30120DDB
:100C2B002A8F32120D2A8F27120D2A8F28120D2A86
:100C3B008F29D2B4E5272528FFE433FE7C00EF256E
:100C4B0030FFEC3EFEEF2532FFEC3EFEEFB529B058
:0E0C5B00ECB506ACE42527F523E42530F52A98
:010C69002268
:100D6100758920759850758DFD858D8BE4F587D239
:060D7100AFD2ACD28E22CD
:040D9100E47837F6D5
:010D9500223B
:040D07007FF47E01F6
:100D0B00EF1FAA0670011E4A60147C007D7DD3ED97
:0E0D1B009400EC940040E9ED1D70F31C80F094
:010D290022A7
:080D82008F993099FDC29922FE
:060CDC007BFF7A0A791883
:100CE2008B178A188919AB17AA18A919120C6A60EE
:100CF200130519E5197002051814F9120C6AFF128E
:050D02000D8280E222D9
:100B9C00120CDC120D07120CDC120D07120CDC12FD
:100BAC000D077BFF7A0A791D120CE2120D077BFFF1
:100BBC007A0A7924120CE2120D077BFF7A0A794E1D
:100BCC00120CE2120D07120D917BFF7A0A795C125E
:100BDC000CE2800BE535453445337020120D911233
:100BEC000D07751AFF751B0A751C727B007A00794C
:0F0BFC0038120AA38B338A34893580D8020D91C1
:10080000751AFF751B0A751C757B007A0079381202
:100810000AA38B338A348935EA494B6006120D915D
:10082000753601751AFF751B0A751C7D7B007A00F1
:100830007938120AA38B338A348935EA494B60062A
:10084000120D91E4F536E53670030208DE751AFFE5
:10085000751B0A751C837B007A007938120AA38BFA
:10086000338A348935EA494B6074900005120C8351
:10087000F531751AFF751B0A751C887B007A0079A3
:1008800038120AA38B338A348935E4FFEFF5827579
:100890008300A3AB33AA34A935120C83FE742B2F2B
:1008A000F8A6060FBF02E5E52BB43109E52CB430FC
:1008B00004D2B7800CE52BB43107E52CB43102C269
:1008C000B7E52BB43209E52CB43004D2B6800CE580
:0E08D0002BB43207E52CB43102C2B6120D91E2
:0108DE0022F7
:0608DF008B148A15891636
:1008E5007BFF7A0A798A120CE27F2C7E01120D0BAE
:1008F500AB14AA15A916120CE27F647E00800BE5E5
:10090500354534453370207F64FE120D0B751AFF93
:10091500751B0A751C9B7B007A007938120AA38B1C
:10092500338A34893580D8751AFF751B0A751C837F
:100935007B007A007938120AA38B338A348935EA29
:10094500494B6040900005120C83F531751AFF750F
:100955001B0A751C887B007A007938120AA38B3331
:100965008A348935E4FFEFF582758300A3AB33AA9A
:1009750034A935120C83FE742B2FF8A6060FBF057C
:07098500E5120D91020D9136
:100B2500120D07120D077FE87E03120D0B120D61E2
:100B3500120B9C120800E53660F9120C0B7508546F
:100B4500E52375F00A8475F00A84E5F02430F5098B
:100B5500E52375F00A84E5F02430F50AE52A75F0F9
:100B65000A8475F00A84E5F02430F50BE52A75F062
:100B75000A84E5F02430F50CA2B7E433F5132430EC
:100B8500F50DA2B6E433F5132430F50E7B007A009B
:070B950079081208DF809CC3
:03002300020CB01C
:100CB000C0E0C0D075D000C000309819C2ACC29856
:100CC0007837E6062438F8A6997837E6C394324098
:0C0CD000027600D2ACD000D0D0D0E032D0
:0300000002098C66
:0C098C00787FE4F6D8FD7581690209D37C
:100C6A00BB010689828A83E0225002E722BBFE0288
:090C7A00E32289828A83E49322BB
:100C8300BB010CE58229F582E5833AF583E0225026
:100C930006E92582F8E622BBFE06E92582F8E22270
:0D0CA300E58229F582E5833AF583E493228A
:100AA3008B178A188919AB1AAA1BA91C120C6A6026
:100AB30063AB17AA18A919120C6A605F851A1D8502
:100AC3001B1E851C1F8B208A218922AB1DAA1EA9F0
:100AD3001F120C6AFF6023AB20AA21A922120C6A01
:100AE3006F701704251FF51FE4351EF51E740125CD
:100AF30022F522E43521F52180D1AB1DAA1EA91FC1
:100B0300120C6A7002800D74012519F519E4351869
:100B1300F518809DAB17AA18A919227B007A0079D2
:020B23000022AE
:10099800020B25E493A3F8E493A34003F68001F245
:1009A80008DFF48029E493A3F85407240CC8C33360
:1009B800C4540F4420C8834004F456800146F6DF2F
:1009C800E4800B0102040810204080900D77E47E3B
:1009D800019360BCA3FF543F30E509541FFEE49324
:1009E800A360010ECF54C025E060A840B8E493A3EB
:1009F800FAE493A3F8E493A3C8C582C8CAC583CA16
:100A0800F0A3C8C582C8CAC583CADFE9DEE780BECD
:010D81000071
:00000001FF
